S01300004D6F746F72436F6E746F6C2E7372656391
S113000012C030C22BC02AC029C028C027C026C0B5
S113001025C0C6C123C022C021C020C01FC01EC02D
S11300201DC01CC01BC011241FBECFE5D4E0DEBF21
S1130030CDBF10E0A0E6B0E0E4EBF4E002C0059030
S11300400D92A436B107D9F720E0A4E6B0E001C0D0
S11300501D92A638B207E1F7D6D02AC2D1CF859B2C
S113006002C080E001C082E0869902C0816001C0C4
S11300708E7F879906C090916B00926090936B007D
S113008005C090916B009D7F90936B00B09906C062
S113009090916B00916090936B0005C090916B0000
S11300A09E7F90936B008370089580B391E0282F16
S11300B0287083FD90E0909379002223C1F0809111
S11300C07A00811114C080917B00811110C080914D
S11300D07C0081110CC080917D00811108C081E0F9
S11300E08093680080916300813041F408951092F8
S11300F0680080916300882391F006C081E08093BA
S1130100690080936C0007C081E090916E009111AA
S113011080E080936E00809168008093630008956E
S113012080B391E0382F387083FD90E090936F0096
S113013080B391E0282F207184FD90E090937400A7
S11301403323A1F080917000811110C0809171005F
S113015081110CC080917200811108C080917300DC
S1130160811104C081E08093680002C0109268008D
S11301702223A1F080917500811110C08091760036
S113018081110CC080917700811108C080917800A2
S1130190811104C081E08093670002C0109267005F
S11301A08091680090916300891771F0882331F081
S11301B081E08093690080936C0002C010926E000D
S11301C08091680080936300809167009091620041
S11301D0891779F0882331F081E080936900809356
S11301E06C0003C081E080936E008091670080936F
S11301F06200089583E083BF89B7816089BF7894E2
S11302008FEE82BF0895B898A29881B3877E81BB90
S113021081B38F7181BBA39AA19AA29AC091600005
S1130220D0916100CE012FD1837080936E00833012
S113023028F010926E0060E0CE012DD180916E0006
S1130240823060F785B7836085BF8BB780648BBFCE
S1130250D1DFC298AB9A81E080936C00D8E00F2E76
S1130260F6E0FF2EF02D17E0C1E002E080916C0073
S1130270811187C080916A00882309F445C0809168
S11302806B00813051F028F08230C1F0833039F1B5
S113029037C010926D00AB9A38C0C0936D00809146
S11302A0840090918500883E934078F110928500F7
S11302B01092840085B38D2785BB27C000936D0001
S11302C08091840090918500803D9740F0F01092D9
S11302D085001092840085B38D2785BB16C0C0931A
S11302E06D008091840090918500883E934068F071
S11302F0109285001092840085B38D2785BB05C0BC
S113030010926D00AB9A01C0AB9AA9DE823041F025
S1130310833051F0813069F4C0936A00C6DE0DC0A9
S1130320C0936A00FDDE09C010926E00C0936A009B
S113033004C010926D0010926A008091820088239C
S113034091F01092820080916D00813019F4109325
S1130350830009C080916D00823019F4F09283000B
S113036002C01092830080918300882341F0809121
S11303706E00813011F4C19A04C0C29A02C0C198BF
S1130380C29880916900882309F470CF60916E004F
S113039080916000909161007ED01092690066CFD8
S11303A01F920F920FB60F9211248F939F93AF93C6
S11303B0BF938FEE82BF80918300882329F08091C0
S11303C0830081508093830080917E0090917F0010
S11303D0A0918000B09181000196A11DB11D809370
S11303E07E0090937F00A0938000B0938100809161
S11303F084009091850001969093850080938400F9
S1130400809166008F5F8B3018F48093660007C07C
S113041010926600809165008F5F809365008091E3
S113042065008B3038F010926500809164008F5F16
S113043080936400809164008B3058F010926400C3
S113044080916C00882329F080916C008150809306
S11304506C00BF91AF919F918F910F900FBE0F9041
S11304601F9018951F920F920FB60F9211248F931D
S1130470809182008F5F809382008F910F900FBED6
S11304800F901F901895E199FECF9FBB8EBBE09A09
S113049099278DB30895262FE199FECF9FBB8EBB7C
S11304A02DBB0FB6F894E29AE19A0FBE0196089517
S10704B0F894FFCFEA
S10704B4010001013D
S9030000FC
