:1000000012C007C22BC02AC029C028C027C026C0E2
:1000100025C090C123C022C021C020C01FC01EC067
:100020001DC01CC01BC011241FBECFE5D4E0DEBF25
:10003000CDBF10E0A0E6B0E0E2E9F4E002C0059038
:100040000D92A636B107D9F720E0A6E6B0E001C0D0
:100050001D92A738B207E1F7D5D019C2D1CF859B41
:1000600002C080E001C082E0869902C0816001C0C8
:100070008E7F879906C090916D00926090936D007D
:1000800005C090916D009D7F90936D00B09906C062
:1000900090916D00916090936D0005C090916D00FE
:1000A0009E7F90936D008370089580B391E0282F18
:1000B000287083FD90E090937A002223C1F0809114
:1000C0007B00811114C080917C00811110C080914F
:1000D0007D0081110CC080917E00811108C081E0FB
:1000E00080936A0080916400813041F408951092F9
:1000F0006A00809164008823C1F014C0809162007E
:10010000882341F01092620081E080936B0080931D
:100110006E0009C081E08093620080936B00809341
:100120006E0001C080E080936400089580B391E088
:10013000382F387083FD90E09093700080B391E089
:10014000282F207184FD90E0909375003323A1F057
:1001500080917100811110C08091720081110CC0DA
:1001600080917300811108C080917400811104C0D6
:1001700081E080936A0002C010926A002223A1F0FD
:1001800080917600811110C08091770081110CC0A0
:1001900080917800811108C080917900811104C09C
:1001A00081E08093690002C01092690080916A002A
:1001B00090916400891759F0882339F010926200F9
:1001C00091E090936B0090936E0080936400809117
:1001D000690090916300891759F0882339F091E004
:1001E0009093620090936B0090936E0080936300F5
:1001F000089583E083BF89B7816089BF78948EEECC
:1002000082BF0895B898A29881B3877E81BB81B3DD
:100210008F7181BBA39AA19AA29AC0916000D091DC
:100220006100CE011FD18370809362008230C8F7D5
:1002300085B7836085BF8BB780648BBFDADFC298D8
:10024000AB9A81E080936E00D8E0C1E012E080912B
:100250006E0081115EC080916C00882309F445C056
:1002600080916D00813051F028F08230C1F08330F0
:1002700039F137C010926F00AB9A38C0C0936F004D
:100280008091850090918600883E934078F110928D
:1002900086001092850085B38D2785BB27C01093FB
:1002A0006F008091850090918600803D9740F0F02E
:1002B000109286001092850085B38D2785BB16C0ED
:1002C000C0936F008091850090918600883E934096
:1002D00068F0109286001092850085B38D2785BB4B
:1002E00005C010926F00AB9A01C0AB9AB8DE8230A5
:1002F00041F0833071F0813041F4C0936C00D5DE61
:1003000008C0C0936C0012DF04C010926F001092FE
:100310006C0080916B00882309F499CFF894609168
:1003200062008091600090916100A4D010926B00F7
:1003300078948DCF1F920F920FB60F9211248F9346
:100340009F93AF93BF938EEE82BF809184008823EA
:1003500091F08091840081508093840080916200AC
:10036000813011F4C19A01C0C29A80918400811138
:1003700002C0C198C29880917F0090918000A091A6
:100380008100B09182000196A11DB11D80937F0074
:1003900090938000A0938100B093820080918500AB
:1003A00090918600019690938600809385008091BD
:1003B00068008F5F8B3018F48093680007C010923C
:1003C0006800809167008F5F80936700809167006D
:1003D0008B3038F010926700809166008F5F8093B9
:1003E0006600809166008B3058F010926600809114
:1003F0006E00882329F080916E00815080936E00FA
:10040000BF91AF919F918F910F900FBE0F901F9052
:1004100018951F920F920FB60F9211248F9380910F
:1004200083008F5F80938300809183008330A0F0EE
:100430001092830080916F00813021F487E08093D7
:1004400084000AC080916F00823021F488E080939C
:10045000840002C0109284008F910F900FBE0F9005
:100460001F901895E199FECF9FBB8EBBE09A99270C
:100470008DB30895262FE199FECF9FBB8EBB2DBB78
:100480000FB6F894E29AE19A0FBE01960895F89497
:02049000FFCF9C
:060492000300030101005C
:00000001FF
